:0400000002001132B7
:03000B0002016E81
:20006A0075087E750930750A6D750B79750C33750D5B750E5F750F7075107F75117B7512F5
:13008A0000E4F51BF51CF51DF51EF51FF520F52102000EEA
:03000E000201B23A
:20009D00AF82E4F522F523C2A0EF23540124FF92A28F06EE2EFFD2A00522E4B522020523B1
:2000BD00C3E5229408E523940040DCE4F522F523C2A0E56323540124FF92A2E56325E0F537
:2000DD0063D2A00522E4B522020523C3E5229408E523940040DA22C2A185566312009DD2C2
:2000FD00A12275560175820C1200F475560075820F1200F47556007582091200F4755607D1
:20011D0075820B1200F475560075820A1200F47F017556008F82C0071200F4D0070FEF24C6
:20013D00F750EE227E017F00C3EE9409EF9400501F8E058D04EC142413F987568D82C00706
:20015D00C0061200F4D006D0070EBE00DB0F80D822C0E0C0D0758CFC758A1820A40CE51DC3
:20017D007008051BE4B51B02051CA2A4E433F51DD0D0D0E0327E007F00C3EE9408EF940035
:20019D00500DEE2413F876000EBE00ED0F80EAE4F51BF51C22E4F557F558F559F55AF55B8F
:2001BD00F55C1200FF120192758901758CFC758A18D2A9D2AFD28CE559455A702020B2F778
:2001DD009000141203D120B2EE755901E4F55AF55BF55CF51BF51CF557F55880DA759000FC
:2001FD009003E81203D17590FF7401B5590814B55A0474018001E4FF85575F855860E55B3A
:20021D00455C60030202F2EF70030202F230A4EEE51D70EAC374D0951B7487851CF063F0BB
:20023D008095F05047E55F255FFDE56033ED2424F876010876007590FF7563057564008567
:20025D005F82856083C0071203ECAD82D0078DF005F07401800225E0D5F0FB44E0F4F5909F
:20027D00900014C0071203D1D0078045E55F255FFDE56033ED2424F876010876007590FF11
:20029D00756305756400855F82856083C0071203ECAD82D0078DF005F07401800225E0D5AC
:2002BD00F0FB4480F4F590900014C0071203D1D007055FE4B55F020560E4F51BF51C74197C
:2002DD00B55F06E4B56002800302021B755B01755C0002021B855F578560587401B55B0686
:2002FD0014B55C0280030201D475907F9003E81203D1E4F55DF55EC3E55D9405E55E94007D
:20031D0040030201D4E55D75F005A4FD25E02424F9870309870419ED0425E02424F987021C
:20033D0009870719EA2BF55FEF3CF56074022D25E02424F9876109876219E561255FFFE57D
:20035D00623560FAE5612FFFE5623AFAED240425E02424F9870509870619ED2FFFEE3AFEC9
:20037D00EB4C7024E55D2413F97405C39FF582E49EF58375630A756400C0011203ECAC822C
:20039D00AD83D001A7048021E55D2413F98F828E83A3A3A3A3A375630A756400C00112039F
:2003BD00ECAE82AF83D001A706055DE4B55D02055E020314AE82AF837C007D00C3EC9EEDE9
:0F03DD009F500B7B5ADBFE0CBC00F10D80EE2213
:06004000E478FFF6D8FD94
:20001E007900E94400601B7A0090043D780175A000E493F2A308B8000205A0D9F4DAF27547
:02003E00A0FF21
:2003EC00E563456460467A01E56325E0F563E564334012F564E5829563E583956440030A06
:20040C0080E6C3E56413F564E56313F563C3E5829563F5F0E58395644005F58385F082C360
:0D042C00E56413F564E56313F563DAE1227E
:200046007800E84400600A790175A000E4F309D8FC7800E84400600C7900900001E4F0A3B8
:04006600D8FCD9FAEF
:0D001100758164120439E582600302000E5F
:0404390075820022A6
:00000001FF
