:03000000020006F5
:0300620002000396
:0300030002006593
:20006500D281D2801203CD7510007582001204E390092075F08012048D75100075820512AB
:2000850004E390092A75F08012048D7510007582071204E390093975F08012048D1202D16E
:2000A5001207268582088583091202CB12072685820A85830B7510507582051204E3E509E2
:2000C50030E71375822D12043CC3E49508F508E49509F509800675822B12043C7511E875DD
:2000E50012038508828509831207EB751164751200120834AE8274302EF58212043C7511B2
:20010500647512008508828509831207EB75110A751200120834AE8274302EF58212043C9B
:2001250075822E12043C75110A7512008508828509831207EBAE8274302EF58212043C75C8
:2001450010507582071204E3E50B30E71375822D12043CC3E4950AF50AE4950BF50B800664
:2001650075822B12043C7511E8751203850A82850B831207EB751164751200120834AE82F7
:2001850074302EF58212043C751164751200850A82850B831207EB75110A751200120834C1
:2001A500AE8274302EF58212043C75822E12043C75110A751200850A82850B831207EBAE0B
:1201C5008274302EF58212043C9000641203B60200A2A8
:200920004C6162352044656D6F00416D6269656E7454656D70433A20004F626A6563745430
:07094000656D70433A2000D1
:2001D700D281D2801203C8C2811203C8C28022C281D2801203C8D2810203C8E58224FF9254
:2001F70081D2801203C8C2800203C8D2801203C8A28192D7C2801203C8A2D7E433F5822226
:20021700AF827E008F05ED2DFFA2D79281D280C007C0061203C8C2801203C8D006D0070E49
:20023700BE080040DF0202027F00D2817E008F05ED2DFDD280C006C0051203C8D005D0065C
:20025700A281E4334DFFC280C007C0061203C8D006D0070EBE080040D58F8222AF82C00794
:200277001201D7D0078F82120217850C82120217850D821202170201E6AF82C0071201D722
:20029700D0078F82C007120217850E821202171201E61201D7D00774014FF58212021712FB
:1402B700023FAF82758201C0071201F21201E6D0078F8222FA
:03005F00750FB466
:2002CB007582070202D77582060202D7AF82C0071201D7850F82120217D0078F821202172C
:2002EB00D281D2801201D77401450FF58212021712023FAF827E00758200C007C006120160
:20030B00F212023FAD82D006D0078D047D00EF4205EE4204758200C005C0041201F21202A0
:20032B003F7582011201F21201E6D004D0058D828C8312075AAC82AD83AEF0FFC004C005BF
:20034B00C006C00790D70A75F0A3743C120536AC82AD83AEF0FFE58124FCF5817433C0E051
:20036B007493C0E07488C0E07443C0E08C828D838EF0EF12052BAC82AD83AEF0FFE5812486
:20038B00FCF581C004C005C006C00790000075F0207441120536AC82AD83AEF0FFE581242E
:0B03AB00FCF5818C828D838EF0EF2228
:1703B600AC830CAD827E037FAADFFEDEFADDF6DCF2227F05DFFE2221
:2003CD007582A812051375823F1205137582D312051375820012051375824012051375827A
:2003ED00A11205137582C81205137582DA12051375821212051375828112051375827F12E4
:20040D0005137582A41205137582A61205137582D512051375828012051375828D120513E6
:20042D007582141205137582AF1205130204B8AF82BF0A01227E00EF24E0F511EE34FFF542
:20044D001290000512063AAE82AF837D008D037C00EB2EFBEC3FFCEB2447F582EC3409F585
:20046D0083E493F582C007C006C00512051FD005D006D0070DBD050040D375820002051FF5
:20048D00AD82AE83AFF08D828E838FF01207CFFC60188C820DBD00010EC007C006C005120A
:2004AD00043CD005D006D00780DC227F007510008F82C0071204E3D0077E00758200C00707
:2004CD00C00612051FD006D0070EBE800040EC0FBF080040D822AF82AE1074022EF510AE98
:2004ED0010740F5EF582C007C006120513D006EEC4540FFE74104EF582120513D00774B079
:1E050D004FF58202051385820D750C0075827802027385820D750C40758278020273BA
:20094700000000000000002F00000007000700147F147F14242A7F2A12231308646236498D
:200967005522500005030000001C2241000041221C0014083E081408083E08080000A060CF
:20098700000808080808006060000020100804023E5149453E00427F40004261514946212A
:2009A70041454B311814127F1027454545393C4A4949300171090503364949493606494988
:2009C700291E0036360000005636000008142241001414141414004122140802015109060C
:2009E700324959513E7C1211127C7F494949363E414141227F4141221C7F494949417F094B
:200A07000909013E4149497A7F0808087F00417F41002040413F017F081422417F404040FC
:200A2700407F020C027F7F0408107F3E4141413E7F090909063E4151215E7F0919294646C3
:200A47004949493101017F01013F4040403F1F2040201F3F4038403F631408146307087059
:200A670008076151494543007F41410055AA55AA550041417F00040201020440404040403B
:200A8700000305000020545454787F484444383844444420384444487F3854545418087EAF
:200AA70009010218A4A4A47C7F0804047800447D40004080847D007F1028440000417F40DF
:200AC700007C041804787C080404783844444438FC2424241818242418FC7C0804040848EB
:200AE70054545420043F4440203C4040207C1C2040201C3C4030403C44281028441CA0A070
:1B0B0700A07C4464544C4400107C82000000FF000000827C10000006090906F2
:0B052B00A8811818C6B2E7C60206A49B
:200536001205D9BC0003020787EF60FA30D502B2D1E583B4FF0302079DE582B4FF030207A9
:200556009D258340072482400B020787248314500302079DF582EA8DF0A4A8F0EA8EF0A49E
:2005760028F8E435F0F9EB8DF0A428E935F0F9E433CA8FF0A429F9EA35F0FAEBF88EF0A4D4
:2005960029F9EA35F0FAE433FBEC8DF0A429F9EA35F0FAE43BFBE88FF0A42AFAEB35F0FB7C
:2005B600E433CCFD8EF0A42AFAEB35F0FBE43CFCED8FF0A42BFBEC35F0FC20E7031206076C
:0305D600020766B3
:2005D900AA82AB83A2F73392D1F5826002D2F7ACF0E58124F9F8E6FD08E6FE0886F008E685
:0E05F900A2F73392D5F5836002D2F7AFF0225D
:06003500E478FFF6D8FD9F
:200607007804EC7011E58224F8500AF582E4C9CACBFCD8EF22EC7820058220E713D58201F2
:1306270022C3E933F9EA33FAEB33FBEC33FCD8EA15822200
:200013007900E94400601B7A00900B22780175A000E493F2A308B8000205A0D9F4DAF27566
:02003300A0FF2C
:1D063A00E5828511F0A4C582C0F08512F0A4D0F025F0C5838511F0A42583F5832267
:20065700E511451260467A01E51125E0F511E512334012F512E5829511E583951240030A28
:2006770080E6C3E51213F512E51113F511C3E5829511F5F0E58395124005F58385F082C3DF
:0D069700E51213F512E51113F511DAE12259
:2006A4001205D97900E583B58202800D50031207B5E583C3958212086CE5D0C465D020E107
:2006C40017EA2DFAEB3EFBEC3FFC5009740112086CEC4480FC020766C3EA9DFAEB9EFBEC80
:1906E4009FFC500FC3E499F9E49AFAE49BFBE49CFCB2D11206070207664B
:20003B007800E84400600A790175A000E4F309D8FC7800E84400600C7900900001E4F0A3C3
:04005B00D8FCD9FAFA
:2006FD007A10E4FBFCE58225E0F582E58333F583EB33FBEC33FCEB9511F5F0EC95124006FF
:09071D00FCABF0438201DADD229D
:200726001208AF700AE582458345F0700122E430D112F4700BE5F0F47006E58330E7012232
:1407460090800022700AE5F07006E58320E70122907FFF22E6
:0C075A00E4AC83AB82FAF9748E02082A2A
:20076600B98003EA13B34010EA2401FAE43BFBE43CFC50047C800582BC000EBB000BBA00D7
:2007860008E4F5F0F583F58222A2D1E582138CF092F78B838A8222E4F583F58275F080F497
:0F07A600A2D11322E4F583F58275F0C0747F228F
:1A07B500E582C583F582A2D133A2D592D11392D5ECCFFCEBCEFBEACDFA22CC
:0D00060075811212090AE5826003020003F1
:1C07CF0020F71430F6148883A88220F507E6A88375830022E280F7E49322E02239
:2007EB00C2D5E58330E70DD2D5E4C39582F582E49583F583E51230E70BE4C39511F511E42B
:16080B009512F51212065730D50BE4C39582F582E49583F58322DF
:13082100FCABF0AA83A982749EC2D1F5821206070207662B
:20083400C2D5E58330E70DD2D5E4C39582F582E49583F583E51230E70DB2D5E4C39511F54D
:1808540011E49512F5121206FD30D50BE4C39582F582E49583F58322F9
:20086C006040F82582500274FFF582E824F8501ECCCBCAF9E4CC24F85014CBCAF9E4CB2494
:20088C00F8500BCAF9E4CA24F8500379002224086010F8C3EC13FCEB13FBEA13FAE913F947
:0308AC00D8F1225E
:2008AF0012090EC3749E95824039790012086C30D126E9F42401F582EAF43400F583EBF493
:2008CF003400F5F0ECF43400700AE582458345F0700122E430E70F22EC20E71489828A8320
:1B08EF008BF02230D10AE4F582F583F5F074802274FFF582F583F5F0747F221C
:04090A0075820022D0
:12090E00AA82AB83A2F73392D1F5826002D2F7ACF022EE
:00000001FF
