:03000000020006F5
:10005F00750A00E4F50BF50CF50DF50EF50FF5101F
:0C006F00F511F512F513F514F515F51652
:0300870002000371
:0300030002008A6E
:10008A00751704751800751934751A00D281D28053
:10009A001204F91202A4751E3275820412064090E7
:1000AA00074175F0801205EA9003E81202921206DF
:1000BA0015751E3475820412064075823012056861
:1000CA0090000B75F040120341850B82850C83AEBC
:1000DA000DAF0EAC17AD18753788753813C007C049
:1000EA0006C005C004120705AA82AB83D004D00556
:1000FA00D006D007EA2CFCEB3DFD8C178D18AA1907
:10010A00AB1A7537E87538038E828F83C005C00431
:10011A00C003C002120705AE82AF83D002D003D05B
:10012A0004D005EE2AFAEF3BFB8A198B1AC3740135
:10013A009CE49D40087517017518008010C3740768
:10014A009517E495185006751707751800C37408B3
:10015A009519E4951A4008751908751A008010C394
:10016A00747E9519E4951A500675197B751A0085DF
:10017A00178285191E120640758230120568900092
:10018A003212029285178285191E12064075822044
:06019A001205680200CA14
:0607410053544152540024
:1001A000D281D28012028DC28112028DC28022C2FF
:1001B00081D28012028DD28102028DA2009281D260
:1001C0008012028DC28002028DD28012028DA28125
:1001D00092D7C28012028DA2D722AF827E008F05F5
:1001E000ED2DFFA2D79281D280C007C00612028DEA
:1001F000C28012028DD006D0070EBE080040DF027A
:1002000001C97F00D2817E008F05ED2DFDD280C017
:1002100006C00512028DD005D006A281E4334DFF41
:10022000C280C007C00612028DD006D0070EBE08DD
:100230000040D58F8222AF82C0071201A0D0078F65
:10024000821201DA851B821201DA851C821201DA20
:100250000201AFAF82C0071201A0D0078F82C00792
:100260001201DA851D821201DA1201AF1201A0D04B
:100270000774014FF5821201DA120202AF82D20036
:10028000C0071201BB1201AFD0078F82227F05DFAA
:10029000FE22AC830CAD827E037FAADFFEDEFADD98
:0402A000F6DCF22274
:0C007B0075210075220175230675240014
:1002A400900064120292752A6B752B007582D0122D
:1002B4000332900064120292752A68752B077582C6
:1002C400D0120332752A6B752B017582D01203325A
:1002D400752A1A752B037582D0120332752A197583
:1002E4002B007582D0120332E522C40354F8F52B97
:1002F400752A1B7582D0120332E521C40354F8F524
:100304002B752A1C7582D0120332752A1D752B0396
:100314007582D0120332752A37752B227582D0125A
:100324000332752A38752B007582D0020332852A70
:100334001B852B1C020236852C1D02025385822D3F
:1003440085832E85F02F752C3B7582D012033BE5F7
:1003540082F524752C3C7582D012033BE582F52589
:10036400752C3D7582D012033BE582F526752C3E33
:100374007582D012033BE582F527752C3F7582D038
:1003840012033BE582F528752C407582D012033B9D
:10039400AC828C29AB247A00AE257F00EE4202EFBA
:1003A4004203852D82852E83852FF0EA120688A3C9
:1003B400EB1206887402252DFDE4352EFEAF2FAA1C
:1003C400267B008A318B30AA277B00E5304202E588
:1003D4003142038D828E838FF0EA120688A3EB12DA
:1003E40006887404252DFDE4352EFEAF2FAA287B44
:1003F400008A318B308C037C00E5304203E53142C6
:10040400048D828E838FF0EB120688A3EC0206889B
:1004140085823285833385F034752C487582D012F9
:10042400033BE582F529752C477582D012033BE521
:1004340082F528752C467582D012033BE582F52798
:10044400752C457582D012033BE582F526752C4444
:100454007582D012033BE582F525752C437582D055
:1004640012033BAC828C248C037C00AA257F00EA17
:100474004204EF42038532828533838534F0EC12E3
:100484000688A3EB12068874022532FDE43533FE98
:10049400AF34AB267C008B368C35AA277C00E5353F
:1004A4004202E53642048D828E838FF0EA1206887A
:1004B400A3EC12068874042532FDE43533FEAF3410
:1004C400AB287C008B368C35AA297C00E5354202AA
:1004D400E53642048D828E838FF0EA120688A3ECFF
:1004E400020688752A6B752B807582D012033290B0
:1004F40000640202927582A812067075823F120689
:10050400707582D31206707582001206707582406F
:100514001206707582A11206707582C81206707573
:1005240082DA1206707582121206707582811206C2
:100534007075827F1206707582A41206707582A689
:100544001206707582D51206707582801206707557
:10055400828D1206707582141206707582AF1206AF
:1005640070020615AF827D007E00BF0A0122BF30F3
:10057400067D007E00802BBF53067D017E00802215
:10058400BF54067D027E008019BF41067D037E00B4
:100594008010BF52067D047E008007BF20047D05C5
:1005A4007E008D378E389000051206A3AE82AF838D
:1005B4007D008E048D03EB2CFC3395E0FBEC24478B
:1005C400F582EB3407F583E493F582C007C006C0D7
:1005D4000512067CD005D006D0070DBD050040D21B
:1005E40075820002067CAD82AE83AFF08D828E836D
:1005F4008FF01206E9FC60188C820DBD00010EC05C
:1006040007C006C005120568D005D006D00780DCF7
:10061400227F00751E008F82C007120640D0077E1D
:1006240000758200C007C00612067CD006D0070EF3
:10063400BE800040EC0FBF080040D822AF82AE1E3F
:1006440074022EF51EAE1E740F5EF582C007C0063E
:10065400120670D006EEC4540FFE74104EF58212CA
:100664000670D00774B04FF58202067085821C753F
:100674001B0075827802023685821C751B407582C8
:0406840078020236C0
:100747003E5149453E464949493101017F01017CF6
:0E0757001211127C7F091929460000000000D3
:06003500E478FFF6D8FD9F
:100013007900E94400601B7A00900765780175A0B8
:1000230000E493F2A308B8000205A0D9F4DAF2754C
:02003300A0FF2C
:1006880020F71130F6138883A88220F509F6A8838D
:100698007583002280FEF280F5F022E5828537F02E
:1006A800A4C582C0F08538F0A4D0F025F0C58385B4
:0806B80037F0A42583F583222D
:10003B007800E84400600A790175A000E4F309D860
:10004B00FC7800E84400600C7900900001E4F0A318
:04005B00D8FCD9FAFA
:1006C0007A10E4FBFCE58225E0F582E58333F583CF
:1006D000EB33FBEC33FCEB9537F5F0EC953840064B
:0906E000FCABF0438201DADD22DB
:0D00060075813812073DE58260030200039A
:1006E90020F71430F6148883A88220F507E6A8833A
:1006F90075830022E280F7E49322E022C2D5E583E4
:1007090030E70DD2D5E4C39582F582E49583F5836C
:10071900E53830E70DB2D5E4C39537F537E49538B8
:10072900F5381206C030D50BE4C39582F582E495FD
:0807390083F583227582002282
:00000001FF
