:03000000020006F5
:06005F0075508002000351
:0300030002018671
:20006500AE82AF83BE0005BF00028010BE0105BF0002800FBE0219BF0016800EC284D2831A
:20008500D28222D284C283D28222D284D283C282227E007F00C3EE9403EF648094805058EF
:2000A5008E828F83C007C006120065D006D0078E05ED75F003A4FD25E02408F9A287E43375
:2000C500FB7C00A70309A70419ED0425E02408F9A286E433FB7C00A70309A704190D0DEDDE
:2000E5002D2408F9A285E433FC7D00A70409A705190EBE00A00F809D22AE82AF837C007D64
:20010500008C028D03C3EA9EEB9F5012E551C313F55170037551800CBC00E60D80E3E55126
:20012500F4F59090001412050385518222AE827480B55205755201800F8EF005F0E5528058
:200145000225E0D5F0FBF552E552F4F59090001412050385528222AE82AF83BE0905BF00B6
:2001650002800F8EF005F07401800225E0D5F0FBF553E553F4F590900014120503855382A9
:2001850022E4F554F555F556F557F558F5597E007F00C3EE9409EF648094805031EE2EFAC6
:2001A500EF33FBEA2408F87601087600EA241AF87600087600EA242CF87600087600EA24D2
:2001C5003EF876000876000EBE00C70F80C49000141205031200967E007F00C3EE9409EF6A
:2001E5006480948050E8EE2EFAEF33FBEA241AF9875A09875B19C37403955AE4955B500341
:200205000202CDE55A75F003A49002127302021E02024002025F0202A8EA2408F886040891
:20022500860518EC4D70097701097700190202CD0556E4B5560205570202CDEA2408F88675
:200245000408860518EC4D70097702097700190202CD770009770019806EEA2408F88604BF
:2002650008860518EC4D7033EA243EF88604088605180CBC00010DA60408A60518C37432C5
:200285009CE49D500E7703097700197554017555008035770209770019802D7700097700CC
:2002A500198025EA2408F8860408860518EC4D7008770309770019800F770009770019EAEB
:2002C500243EF87600087600EE2EFCEF33FDEC241AF9870209870319EA4B7012EC242CF950
:2002E500870409870519BC0205BD00028028E5584559700302046ABE0805BF0002800302C7
:20030500046AC37464955674808557F063F08095F0400302046AEF30E703020458C3740873
:200325009E74808FF063F08095F05003020458EE240A83F582EE240D83F583E473546B82D6
:2003450099B0C7DEF40A030303030303030304855051900001C007C0061200FE858250D015
:2003650006D007020458855053900000C007C00612015C858250D006D007020458855053FF
:20038500900001C007C00612015C858250D006D007020458855053900002C007C00612010F
:2003A5005C858250D006D007020458855052900001C007C006120132858250D006D00702EA
:2003C5000458855053900004C007C00612015C858250D006D007020458855053900005C025
:2003E50007C00612015C858250D006D0078064855053900006C007C00612015C858250D0F3
:2004050006D007804EE5584559603EC3E5569464E557648094805016855051900003C007A3
:20042500C0061200FE858250D006D0078014855051900001C007C0061200FE858250D006C8
:20044500D007E4F558F559800A755801E4F559F556F557EE2EFCEF33FDEC243EF876000825
:2004650076000204E2EE2EFCEF33EC241AF9870409870519BC0366BD0063BE0005BF0002BA
:200485008010BE0405BF0002801EBE0850BF004D802C855053900009C007C00612015C8591
:2004A5008250D006D0078035855052900001C007C006120132858250D006D007801FE5549D
:2004C50045556019855051900002C007C0061200FE858250D006D007E4F554F555EE2EFC1C
:1E04E500EF33EC242CF9EC241AF8860408860518A70409A705190EBE00010F0201E013
:0D050300AD827E027FE6DFFEDEFADDF6222D
:06003500E478FFF6D8FD9F
:200013007900E94400601B7A00900514780175A000E493F2A308B8000205A0D9F4DAF2757A
:02003300A0FF2C
:20003B007800E84400600A790175A000E4F309D8FC7800E84400600C7900900001E4F0A3C3
:04005B00D8FCD9FAFA
:0D00060075815B120510E5826003020003A6
:0405100075820022CE
:00000001FF
