:03000000020006F5
:03005F0002000399
:030003000200F008
:20006200AE828EF005F0E5088002C313D5F0FBF5087003750880E508F4F590900014120647
:200082009285088222AE827480B50905750901800F8EF005F0E509800225E0D5F0FBF50900
:2000A200E509F4F59090001412069285098222AE82AF83BE0905BF0002800F8EF005F074F2
:2000C20001800225E0D5F0FBF50AE50AF4F590900014120692850A8222C284D283D28222DD
:2000E200D284C283D28222D284D283C282227E017F007C017D007A017B008E168F178E0C0A
:200102008F0D8E0E8F0F8E108F118E128F138E148F15750B8078007900C007C006C005C03E
:2001220004C003C002C001C0001200DBD000D001D002D003D004D005D006D007308703026E
:2001420001DBBE0105BF000280030201DB900014C005C004C003C002C001C000120692D02E
:2001620000D001D002D003D004D00520876B9005DCC005C004C003C002C001C000120692A2
:20018200D000D001D002D003D004D005308726850B08900001C005C004C003C002C001C0D9
:2001A2000012006285820BD000D001D002D003D004D0058024850B0A900009C005C004C0A8
:2001C20003C002C001C0001200B185820BD000D001D002D003D004D005A287E433FE7F0056
:2001E20020864BBC0148BD0045900014C007C006C003C002C001C000120692D000D001D0B3
:2002020002D003D006D007208624850B0A900000C007C006C003C002C001C0001200B1858B
:20022200820BD000D001D002D003D006D007A286E433FC7D0020854BBA0148BB0045900001
:2002420014C007C006C005C004C001C000120692D000D001D004D005D006D0072085248502
:200262000B0A900001C007C006C005C004C001C0001200B185820BD000D001D004D005D050
:2002820006D007A285E433FA7B00C007C006C005C004C003C002C001C0001200E2D000D01C
:2002A20001D002D003D004D005D006D0072087627401B5160614B517028002805590001414
:2002C200C007C006C005C004C003C002C001C000120692D000D001D002D003D004D005D097
:2002E20006D00720872C850B0A900002C007C006C005C004C003C002C001C0001200B185BC
:20030200820BD000D001D002D003D004D005D006D007A287E433F51675170030860302031D
:20032200B47401B50C0614B50D0280030203B4900014C007C006C005C004C003C002C001B7
:20034200C000120692D000D001D002D003D004D005D006D00720865A9005DCC007C006C0D7
:2003620005C004C003C002C001C000120692D000D001D002D003D004D005D006D0073087AF
:2003820031850B09900001C007C006C005C004C003C002C001C00012008785820BD000D099
:2003A20001D002D003D004D005D006D00708B8000109208638E8496034850B09900001C0E8
:2003C20007C006C005C004C003C002C001C00012008785820B900064120692D000D001D005
:2003E20002D003D004D005D006D007800478007900A286E433F50C750D002085627401B568
:200402000E0614B50F0280028055900014C007C006C005C004C003C002C001C0001206922B
:20042200D000D001D002D003D004D005D006D00720852C850B0A900004C007C006C005C00D
:2004420004C003C002C001C0001200B185820BD000D001D002D003D004D005D006D007A27D
:2004620085E433F50E750F00C007C006C005C004C003C002C001C0001200E9D000D001D0CF
:2004820002D003D004D005D006D0072087627401B5100614B5110280028055900014C00748
:2004A200C006C005C004C003C002C001C000120692D000D001D002D003D004D005D006D0A6
:2004C2000720872C850B0A900005C007C006C005C004C003C002C001C0001200B185820B20
:2004E200D000D001D002D003D004D005D006D007A287E433F5107511002086627401B5124F
:200502000614B5130280028055900014C007C006C005C004C003C002C001C000120692D064
:2005220000D001D002D003D004D005D006D00720862C850B0A900006C007C006C005C004D5
:20054200C003C002C001C0001200B185820BD000D001D002D003D004D005D006D007A286FA
:20056200E433F5127513003085030206867401B5140614B515028003020686900014C007ED
:20058200C006C005C004C003C002C001C000120692D000D001D002D003D004D005D006D0C5
:2005A200073085030206869005DCC007C006C005C004C003C002C001C000120692D000D015
:2005C20001D002D003D004D005D006D00720870302065A900014C007C006C005C004C00394
:2005E200C002C001C000120692D000D001D002D003D004D005D006D00720872E850B089073
:200602000003C007C006C005C004C003C002C001C00012006285820BD000D001D002D003ED
:20062200D004D005D006D007805A850B08900001C007C006C005C004C003C002C001C00043
:2006420012006285820BD000D001D002D003D004D005D006D007802C850B09900002C007D8
:20066200C006C005C004C003C002C001C00012008785820BD000D001D002D003D004D00589
:10068200D006D007A285E433F51475150002011BCC
:0D069200AD827E027FE6DFFEDEFADDF6229D
:06003500E478FFF6D8FD9F
:200013007900E94400601B7A009006A3780175A000E493F2A308B8000205A0D9F4DAF275EA
:02003300A0FF2C
:20003B007800E84400600A790175A000E4F309D8FC7800E84400600C7900900001E4F0A3C3
:04005B00D8FCD9FAFA
:0D00060075811712069FE58260030200035A
:04069F00758200223E
:00000001FF
