:03000000020006F5
:10005F0075087E750930750A6D750B79750C3375DA
:10006F000D5B750E5F750F7075107F75117B7512B7
:10007F0008751307751400751501751600751701AE
:10008F00751800751901E4F51AF51BF51C751D029D
:10009F00F51EF51FF520752102F522752301F524B4
:1000AF00F525F526752709F528F529F52A752B036A
:1000BF00F52C752D03F52E752F01F530753103F5E0
:0900CF0032753302F5340200031E
:030003000201B542
:1000D800AF827D007E00C2A0EF23540124FF92A2CC
:1000E8008F04EC2CFFD2A00DBD00010EC3ED9408C7
:1000F800EE940040E17E007F00C2A0E53C2354015D
:1001080024FF92A2E53C25E0F53CD2A00EBE0001FA
:100118000FC3EE9408EF940040DF22AF82C2A1859E
:10012800353C8F821200D8D2A12275350175820C18
:1001380012012375350075820F120123753500757C
:10014800820912012375350775820B120123753553
:100158000075820A1201237F017535008F82C0075E
:10016800120123D0070FEF24F750EE22AE82AF839F
:10017800EE4F60247F018F061EEE2E2413F98705AB
:100188000919ED2408F987358F82C007120123D099
:10019800070FBF090040DF227F018512358F82C01B
:1001A80007120123D0070FBF090040EE22120132C7
:1001B800900001120174900BB81202ED7E027F00CC
:1001C8007C007D00C3EC9408ED94005016EC2CFAEA
:1001D800ED33FBEA2413F8760A0876000CBC00E439
:1001E8000D80E174012EFCE43FFDE4F536F537C3DC
:1001F800E5369CE5379D502E8E03AA36EBC39A252B
:10020800E02413F9E5362536FAE53733EA2423F8EE
:10021800860208860318A70209A703190536E4B55C
:1002280036CD053780C90EBE00010F900001C0070A
:10023800C006120174900BB81202EDD006D007E484
:10024800F538F539C3E5389406E5399400506674F5
:10025800012EFAE43FFBE4F53AF53BC3E53A9AE5AB
:100268003B9B502E8E05AC3AEDC39C25E02413F938
:10027800E53A253AFCE53B33EC2423F88604088666
:100288000518A70409A70519053AE4B53ACD053BB1
:1002980080C9900001C007C006120174900BB81203
:1002A80002EDD006D0070EBE00010F0538E4B538C0
:1002B800930539808F7E017F00C3EE9407EF940089
:1002C80040030201C474015EF582758300C007C053
:1002D80006120174900BB81202EDD006D0070EBEBC
:1002E80000D70F80D4AE82AF837C007D00C3EC9E24
:1002F800ED9F500B7B5ADBFE0CBC00F10D80EE220B
:06003500E478FFF6D8FD9F
:100013007900E94400601B7A0090030C780175A015
:1000230000E493F2A308B8000205A0D9F4DAF2754C
:02003300A0FF2C
:10003B007800E84400600A790175A000E4F309D860
:10004B00FC7800E84400600C7900900001E4F0A318
:04005B00D8FCD9FAFA
:0D00060075813C120308E5826003020003CF
:0403080075820022D8
:00000001FF
