:03000000020006F5
:10005F0075260875317E75323075336D7534797547
:10006F00353375365B75375F75387075397F753A0F
:0A007F007B753B4F753C0002000347
:030003000204F301
:10008900AF82E4F52DF52EC2A0EF23540124FF928F
:10009900A28F06EE2EFFD2A0052DE4B52D02052E66
:1000A900C3E52D9408E52E940040DCE4F52DF52EEA
:1000B900C2A0E53E23540124FF92A2E53E25E0F5C6
:1000C9003ED2A0052DE4B52D02052EC3E52D9408D9
:1000D900E52E940040DA22AF82C2A17E01853D3E21
:1000E9008F82C007C006120089D006D0070EEE2401
:1000F900FE50EAD2A122753D0175820C1200E0750D
:100109003D0075820F1200E0753D007582091200ED
:10011900E0753D0775820B1200E0753D0075820A96
:100129001200E07F01753D008F82C0071200E0D008
:10013900070FEF24F750EE227F018F061EEE2E24C3
:1001490016F987050919ED2431F9873D8F82C00712
:100159001200E0D0070FBF090040DF22AE82AF8353
:10016900C374039EE49F4031EE2E9001777380069D
:10017900800D8014801BC286D285D284D28322D27C
:1001890086C285D284D28322D286D285C284D28382
:1001990022D286D285D284C28322E4F52DF52E851A
:1001A9002D82852E831201657403B52D06E4B52EC3
:1001B900028002800EA281E433FF780813E692E000
:1001C900F6803CE52D75F003A4042408F9A280E427
:1001D9003313E792E0F7E52D75F003A42402240810
:1001E900F9A281E43313E792E0F7E52D75F003A452
:1001F90024032408F9A282E433FF13E792E0F70508
:100209002DE4B52D02052EC3E52D9404E52E9400A9
:10021900408DA2B2E433781213E692E0F6A2B3E479
:1002290033781313E692E0F6A2A0E433781413E6C8
:1002390092E0F6A2A1E433781513E692E0F622AE35
:1002490082AF83EE4F6036752D07752E00E52D259B
:100259002DFEE52E33EE2416F9AF2D1FEF2F2416B0
:10026900F8860608860718A70609A70719152D7421
:10027900FFB52D02152EE52D452E70D122E4F52D61
:10028900F52EE52D252DFEE52E33EE2416F9AF2D9D
:100299000FEF2F2416F8860608860718A70609A760
:1002A9000719AF2D0FEF2F2416F8760B08760005E6
:1002B9002DE4B52D02052EC3E52D9407E52E9400F6
:1002C90040C0227E007F007C01E4FDF52DF52EE57E
:1002D9002D252DFAE52E33EA2416F987820987831D
:1002E900198C3E8D3FC007C006C005C004120658D0
:1002F900AA82AB83D004D005D006D007EA2EFEEB44
:100309003FFF8C3E8D3F90000AC007C00612065879
:10031900AC82AD83D006D007052DE4B52D02052E9C
:10032900C3E52D9408E52E940040A48E828F832284
:10033900AF82BF0802800FBF10028017BF20028062
:1003490020BF40488031E5292527F527E52A3528AA
:10035900F52822E527C39529F527E528952AF528C3
:100369002285293E852A3F852782852883120658BA
:100379008582278583282285293E852A3F852782EC
:1003890085288312062F85822785832822AE82AF8E
:1003990083E4F52DF52EE52D252DFCE52E33EC24F2
:1003A90016F9753E0A753F008E828F83C007C00615
:1003B900C0011206C2E5828583F0D001D006D007BC
:1003C900F709A7F019753E0A753F008E828F8312CF
:1003D90006F8AE82AF83EE4F6013052DE4B52D020A
:1003E900052EC3E52D9408E52E940040A922AE827E
:1003F900AF83BE0A05BF0002801CBE0B06BF000307
:10040900020497BE0C06BF00030204A0BE0D06BF7E
:1004190000030204AD227480B526057526088007FD
:10042900E5267003752608E52625E0F526F4F590FE
:10043900900014120622E52B452C7018E527452853
:1004490070121202CC858227858328752B01752CA1
:10045900001204C9E52B452C7065E5274528605F26
:100469001202CC85822985832A1204C9E526C31381
:10047900FFBF04027F408F821203398527828528B6
:1004890083120396120141752B01752C00229000ED
:10049900001202480201411204C9E4F527F528F5C2
:1004A90029F52A221202CC85822985832A8526826A
:1004B9001203398527828528831203960201412276
:1004C9007F018F061EEE2E2416F8760B087600752E
:1004D9003D008F82C0071200E0D0070FBF0900401E
:1004E900E1753D087582010200E01200FFE4F52D77
:1004F900F52EE52D2408F8E64401F6E52D2408F843
:10050900E654F9F6E52D2408F8E654E7F6052DE456
:10051900B52D02052EC3E52D940EE52E940040D28B
:100529001204C99000141206221201A37E007F0052
:10053900C3EE940EEF940050EAEE2408F9E7035451
:1005490003FD600ABD01028023BD025A803CEE24EE
:1005590008F9E720E00CEE2408F8E654F94402F61D
:100569008044EE2408F8E654F9F6803AEE2408F9B6
:10057900E720E00CEE2408F8E654F94404F6802656
:10058900EE2408F8E654F9F6801CEE2408F9E72071
:10059900E00CEE2408F8E654F94404F68008EE2449
:1005A90008F8E654F9F6EE2408F9E754067049EE1E
:1005B9002408F9E7C4235403FDBD023CC3EE940AA1
:1005C900EF94005024900001C007C006120248D0E1
:1005D90006D0078E168F17C007C006120141D00634
:1005E900D007E4F52BF52C800F8E828F83C007C0CE
:1005F900061203F7D006D007EE2408F9EE2408F80E
:10060900E6035403FDC4035418F5F0E754E745F035
:10061900F70EBE00010F020539AD827E027FE6DFCB
:10062900FEDEFADDF6227A10E4FBFCE58225E0F530
:1006390082E58333F583EB33FBEC33FCEB953EF535
:0F064900F0EC953F4006FCABF0438201DADD2276
:06003500E478FFF6D8FD9F
:100013007900E94400601B7A00900734780175A0E9
:1000230000E493F2A308B8000205A0D9F4DAF2754C
:02003300A0FF2C
:10065800E582853EF0A4C582C0F0853FF0A4D0F0C5
:1006680025F0C583853EF0A42583F58322E53E4524
:100678003F60467A01E53E25E0F53EE53F3340120E
:10068800F53FE582953EE583953F40030A80E6C342
:10069800E53F13F53FE53E13F53EC3E582953EF58C
:1006A800F0E583953F4005F58385F082C3E53F1368
:0A06B800F53FE53E13F53EDAE122BE
:10003B007800E84400600A790175A000E4F309D860
:10004B00FC7800E84400600C7900900001E4F0A318
:04005B00D8FCD9FAFA
:0D00060075813F120730E5826003020003A0
:1006C200C2D5E58330E70DD2D5E4C39582F582E445
:1006D2009583F583E53F30E70BE4C3953EF53EE4B1
:1006E200953FF53F12067530D50BE4C39582F5822E
:1006F200E49583F58322C2D5E58330E70DD2D5E4B4
:10070200C39582F582E49583F583E53F30E70DB228
:10071200D5E4C3953EF53EE4953FF53F12062F30F2
:10072200D50BE4C39582F582E49583F58322758225
:020732000022A3
:00000001FF
