:03000000020034C7
:20008D00756408E4F566F567756930756A6D756B79756C33756D5B756E5F756F7075707FD9
:0C00AD0075717B75727E75734F02000345
:03000300020354A1
:2000B900AF827E00C2A0EF23540124FF92A28F05ED2DFFD2A00EBE080040E97F00C2A0E576
:2000D9007423540124FF92A2E57425E0F574D2A00FBF080040E722AF82C2A17E01856874F8
:2000F9008F82C007C0061200B9D006D0070EEE24FE50EAD2A12275680175820C1200F0758C
:20011900680075820F1200F07568007582091200F075680775820B1200F075680075820AB1
:200139001200F07F017568008F82C0071200F0D0070FEF24F750EE22AD82AE83AFF0745C4E
:20015900C0E07400C0E07440C0E08D828E838FF01200061581158115816002800C756480BE
:2001790075907F9000141204B07F018F06EE14245CF987688F82C0071200F0D0070FEF2426
:20019900F750E822AE82AF83C374039EE49F4031EE2E9001AF738006800D8014801BC2866E
:2001B900D285D284D28322D286C285D284D28322D286D285C284D28322D286D285D284C263
:2001D90083227E007F00C3EE9404EF64809480506C8E828F83C007C00612019DD006D0076C
:2001F900BE0310BF000DA281E433FC7D008C1A8D1B80428E05ED75F003A4FD25E02408F9D3
:20021900A280E433FB7C00A70309A70419ED0425E02408F9A281E433FB7C00A70309A70474
:20023900190D0DED2D2408F9A282E433FC7D00A70409A705190EBE00010F0201DFA2B2E410
:2002590033FE7F008E1C8F1DA2B3E433FE7F008E1E8F1FA2A0E433FE7F008E208F21A2A1C5
:20027900E433FE7F008E228F23227E077F00C3E49E74808FF063F08095F05016EE245CF96C
:200299008E05ED14245CF88605A7051EBEFF011F80DC9000640204B0AE82AF83BE0A05BF13
:2002B9000002801ABE0B05BF00028032BE0C05BF00028036BE0D06BF00030203482274800C
:2002D900B564057564088007E5647003756408E56425E0F564F4F5909000140204B075658E
:2002F900017590FE9000140204B07E007F00C3EE9408EF648094805021EE245CF876008E7B
:2003190005ED04F582756800C007C0061200F0D006D0070EBE00D70F80D47568087582015B
:200339001200F07565027590FD9000140204B07565047590FB9000140204B012010F7E0092
:200359007F00C3EE940EEF648094805027EE2EFCEF33EC2408F87601087600EC2424F87673
:2003790000087600EC2440F876000876000EBE00D10F80CE90000C1202B19000141204B0E5
:200399001201DB7E007F00C3EE940EEF6480948050E8EE2EFCEF33FDEC2424F9870209876A
:2003B9000319BA0005BB00028010BA0105BB00028026BA025DBB005A803CEC2408F8860257
:2003D90008860318EA4B70087701097700198042770009770019803AEC2408F886020886EB
:2003F9000318EA4B70087702097700198024770009770019801CEC2408F886040886051875
:20041900EC4D70087702097700198006770009770019EE2EFCEF33FDEC2424F987020987ED
:200439000319EA4B7050EC2440F9870409870519BC0243BD0040C3EE940AEF64809480508C
:2004590026C007C006120283D006D007EE2469F987058D5C90005C75F040C007C006120172
:2004790051D006D007800F8E828F83C007C0061202B1D006D007EE2EFCEF33EC2440F9EC46
:170499002424F8860408860518A70409A705190EBE00010F0203A0DD
:0D04B000AD827E027FE6DFFEDEFADDF62281
:06006300E478FFF6D8FD71
:200041007900E94400601B7A009004C1780175A000E493F2A308B8000205A0D9F4DAF275A0
:02006100A0FFFE
:200069007800E84400600A790175A000E4F309D8FC7800E84400600C7900900001E4F0A395
:04008900D8FCD9FACC
:20000600E58124FCC3C8C0E0C082E608467006E5824583601218E58296F58208E5839642C8
:1B0026008208E5F0964582D082C8D0E0C8227581741204BDE582600302000343
:0404BD007582002222
:00000001FF
