:03000000020006F5
:20005F00756408E4F566F567756C30756D6D756E79756F3375705B75715F75727075737FEF
:0C007F0075747B75757E75764F0200036A
:030003000203599C
:20008B00AF827E00C2A0EF23540124FF92A28F05ED2DFFD2A00EBE080040E97F00C2A0E5A4
:2000AB007723540124FF92A2E57725E0F577D2A00FBF080040E722AF82C2A17E018568771A
:2000CB008F82C007C00612008BD006D0070EEE24FE50EAD2A12275680175820C1200C27516
:2000EB00680075820F1200C27568007582091200C275680775820B1200C275680075820A6A
:20010B001200C27F017568008F82C0071200C2D0070FEF24F750EE2285826985836A85F050
:20012B006B7C01EC2569FAE4356AFBAF6B1ABAFF011B8A828B838FF01204C2FF8C06EE14CD
:20014B00245CF98706EFB5061675648075907F900014C007C0041204B5D004D00780147543
:20016B0064087590F7900014C007C0041204B5D004D0078F688C82C0041200C2D0040CECFE
:20018B0024F7509F22AE82AF83C374039EE49F4031EE2E9001A2738006800D8014801BC234
:2001AB0086D285D284D28322D286C285D284D28322D286D285C284D28322D286D285D284AD
:2001CB00C283227E007F00C3EE9404EF64809480506C8E828F83C007C006120190D006D0CC
:2001EB0007BE0310BF000DA281E433FC7D008C1A8D1B80428E05ED75F003A4FD25E02408D3
:20020B00F9A280E433FB7C00A70309A70419ED0425E02408F9A281E433FB7C00A70309A78D
:20022B0004190D0DED2D2408F9A282E433FC7D00A70409A705190EBE00010F0201D2A2B20B
:20024B00E433FE7F008E1C8F1DA2B3E433FE7F008E1E8F1FA2A0E433FE7F008E208F21A290
:20026B00A1E433FE7F008E228F23227E077F00C3E49E74808FF063F08095F05016EE245CD2
:20028B00F98E05ED14245CF88605A7051EBEFF011F80DC22AE82AF83BE0A05BF0002801A14
:2002AB00BE0B05BF00028049BE0C05BF0002804DBE0D06BF000302034D227480B5640575F0
:2002CB0064088007E56470037564080566E4B566020567C374049566E495675005E4F56601
:2002EB00F567E56425E0F564F4F5909000140204B57565017590FE9000140204B57E007FDE
:20030B0000C3EE9408EF648094805021EE245CF876008E05ED04F582756800C007C00612DA
:20032B0000C2D006D0070EBE00D70F80D47568087582011200C27565027590FD9000140208
:20034B0004B57565047590FB9000140204B51200E17E007F00C3EE940EEF648094805027FB
:20036B00EE2EFCEF33EC2408F87601087600EC2424F87600087600EC2440F87600087600D7
:20038B000EBE00D10F80CE90000C12029F9000141204B51201CE7E007F00C3EE940EEF6416
:2003AB0080948050E8EE2EFCEF33FDEC2424F9870209870319BA0005BB00028010BA010501
:2003CB00BB00028026BA025DBB005A803CEC2408F8860208860318EA4B70087701097700DF
:2003EB00198042770009770019803AEC2408F8860208860318EA4B700877020977001980CD
:20040B0024770009770019801CEC2408F8860408860518EC4D7008770209770019800677FC
:20042B000009770019EE2EFCEF33FDEC2424F9870209870319EA4B7050EC2440F9870409AD
:20044B00870519BC0243BD0040C3EE940AEF648094805026C007C006120276D006D007EE90
:20046B00246CF987058D5C90005C75F040C007C006120123D006D007800F8E828F83C007FA
:20048B00C00612029FD006D007EE2EFCEF33EC2440F9EC2424F8860408860518A70409A7EC
:0A04AB0005190EBE00010F0203A5A3
:0D04B500AD827E027FE6DFFEDEFADDF6227C
:06003500E478FFF6D8FD9F
:200013007900E94400601B7A009004E2780175A000E493F2A308B8000205A0D9F4DAF275AD
:02003300A0FF2C
:20003B007800E84400600A790175A000E4F309D8FC7800E84400600C7900900001E4F0A3C3
:04005B00D8FCD9FAFA
:0D0006007581771204DEE5826003020003BD
:1C04C20020F71430F6148883A88220F507E6A88375830022E280F7E49322E02249
:0404DE007582002201
:00000001FF
