:04000000020029329F
:01000B0032C2
:0100130032BA
:01001B0032B2
:0300230002019B3C
:10008200750803750902750A01750B02750C017575
:100092000D02750E017510007512007513017514AD
:0100A200005D
:0300A6000200262F
:030026000200A92C
:1000A9007F007E007D007C00C007C006C005C0043B
:1000B900120247D004D005D006D00775892075985B
:1000C90050758DFAD28E75A89020B211BF030050D9
:1000D9000E0FBF030A750F0175100180027F002002
:1000E900B311BE0300500E0EBE030A750F02751040
:1000F9000180027E0020A011BD0300500E0DBD033A
:100109000A750F0375100180027D0020A111BC033F
:1001190000500E0CBC030A750F0475100180027C97
:10012900007401B51006850F997510007401B51298
:1001390098E513FB142408F9E7FAB5112F7408C3DD
:100149009BF582851115C007C006C005C0041201C0
:10015900E37515017582081201E3D004D005D006B4
:10016900D0070513E4B51324051480207401B512D2
:10017900028019751500758208C007C006C005C040
:10018900041201E3D004D005D006D007751200028D
:1001990000D2109902800010980280068599117585
:0301A9001201320E
:0300A300751B00CA
:1001AC00AF827E00C2A5EF23540124FF92A78F05D6
:1001BC00ED2DFFD2A50EBE080040E97F00C2A5E5DB
:1001CC001C23540124FF92A7E51C25E0F51CD2A5A5
:1001DC000FBF080040E722AF82C2A67E0185151C26
:1001EC008F82C007C0061201ACD006D0070EEE24D9
:1001FC00FE50EAD2A622AF82C2A67E01C3EF9E5069
:10020C0014751C00758200C007C0061201ACD00624
:10021C00D0071E80E785171C851682C0071201AC1B
:10022C00D0071FBF01004010751C00758200C0076D
:10023C001201ACD0071F80EBD2A622751501758276
:10024C000C1201E375150075820F1201E37515FF91
:10025C007582091201E375150775820B1201E3759E
:10026C00150075820A1201E37F017515008F82C09B
:10027C00071201E3D0070FEF24F750EE22AD82AE48
:10028C0083AFF07C018C027B001ABAFF011BEA2DB4
:10029C00FAEB3EF98F038A8289838BF01203DFF528
:1002AC00158C82C007C006C005C0041201E3D0043F
:1002BC00D005D006D0070CEC24F750C922AF827EB3
:1002CC00018E047D001CBCFF011DEC2518FCED35D6
:1002DC0019FDAB1A8C828D838BF01203DFF5178E10
:1002EC00168F82C007C006120202D006D0070EEE8F
:1002FC0024F750CD22AD82AE83AFF07C08AA1B7BD5
:10030C00008C007900EAC398FAEB99FB74082AF583
:10031C0082E43BF583751C08891DC007C006C00527
:10032C00C0041203FBAA82AB83D004D005D006D044
:10033C0007EA2DFAEB3EF98F038A8289838BF01240
:10034C0003DFF5178C16758201C007C006C005C007
:10035C0004120202D004D005D006D0071CBC010048
:10036C00509BE51B04F51B24F75003751B009003F1
:10037C00E8020380AC830CAD827E037FAADFFEDE35
:06038C00FADDF6DCF222AE
:06005800E478FFF6D8FD7C
:100036007900E94400601B7A00900435780175A0C8
:1000460000E493F2A308B8000205A0D9F4DAF27529
:02005600A0FF09
:10039200E51C451D60467A01E51C25E0F51CE51DBE
:1003A200334012F51DE582951CE583951D40030A35
:1003B20080E6C3E51D13F51DE51C13F51CC3E5829C
:1003C200951CF5F0E583951D4005F58385F082C304
:0D03D200E51D13F51DE51C13F51CDAE122F5
:10005E007800E84400600A790175A000E4F309D83D
:10006E00FC7800E84400600C7900900001E4F0A3F5
:04007E00D8FCD9FAD7
:0D00290075811D120431E58260030200267E
:1003DF0020F71430F6148883A88220F507E6A88347
:1003EF0075830022E280F7E49322E022C2D5E583F1
:1003FF0030E70DD2D5E4C39582F582E49583F5837A
:10040F00E51D30E70BE4C3951CF51CE4951DF51DA8
:10041F0012039230D50BE4C39582F582E49583F5F0
:06042F0083227582002209
:00000001FF
