:0400000002001132B7
:03000B0002008B65
:0D006A00E4F508F509750A0AF50B02000E11
:03000E0002007776
:1000770075907F758901758CFF758A9CD2A9D2AF5F
:10008700D28C80FEC0E0C0F0C0D00508E4B50802FD
:100097000509C3E5089464E509648094804005E494
:1000A700F508F509C3E508950AE5096480850BF0AD
:1000B70063F08095F05004C2908002D290758CFF57
:1000C700758A9CD0D0D0F0D0E032AC830CAD827E64
:0C00D700037FAADFFEDEFADDF6DCF22279
:06004000E478FFF6D8FD94
:10001E007900E94400601B7A009000E7780175A032
:10002E0000E493F2A308B8000205A0D9F4DAF27541
:02003E00A0FF21
:100046007800E84400600A790175A000E4F309D855
:10005600FC7800E84400600C7900900001E4F0A30D
:04006600D8FCD9FAEF
:0D00110075810B1200E3E582600302000E12
:0400E3007582002200
:00000001FF
