:03000000020006F5
:08005F00E4F508F509020003B5
:0300030002007781
:10006700758CFC758A18D28CC28D308DFDC28C229E
:10007700759000758901E590F4F590E4F508F509A8
:100087001200670508E4B508020509C3E50894E806
:0A009700E5096480948340E880DCF2
:06003500E478FFF6D8FD9F
:100013007900E94400601B7A009000A5780175A07F
:1000230000E493F2A308B8000205A0D9F4DAF2754C
:02003300A0FF2C
:10003B007800E84400600A790175A000E4F309D860
:10004B00FC7800E84400600C7900900001E4F0A318
:04005B00D8FCD9FAFA
:0D0006007581091200A1E58260030200036C
:0400A1007582002242
:00000001FF
