:03000000020006F5
:20005F0075260875317E75323075336D75347975353375365B75375F75387075397F753AC5
:0A007F007B753B4F753C0002000347
:030003000204D024
:20008900AF82E4F52DF52EC2A0EF23540124FF92A28F06EE2EFFD2A0052DE4B52D02052E8E
:2000A900C3E52D9408E52E940040DCE4F52DF52EC2A0E53E23540124FF92A2E53E25E0F569
:2000C9003ED2A0052DE4B52D02052EC3E52D9408E52E940040DA22AF82C2A17E01853D3ED3
:2000E9008F82C007C006120089D006D0070EEE24FE50EAD2A122753D0175820C1200E07507
:200109003D0075820F1200E0753D007582091200E0753D0775820B1200E0753D0075820A9D
:200129001200E07F01753D008F82C0071200E0D0070FEF24F750EE227F018F061EEE2E2405
:2001490016F987050919ED2431F9873D8F82C0071200E0D0070FBF090040DF22AE82AF83BF
:20016900C374039EE49F4031EE2E900177738006800D8014801BC286D285D284D28322D293
:2001890086C285D284D28322D286D285C284D28322D286D285D284C28322E4F52DF52E8536
:2001A9002D82852E831201657403B52D06E4B52E028002800EA281E433FF780813E692E07D
:2001C900F6803CE52D75F003A4042408F9A280E43313E792E0F7E52D75F003A42402240811
:2001E900F9A281E43313E792E0F7E52D75F003A424032408F9A282E433FF13E792E0F70554
:200209002DE4B52D02052EC3E52D9404E52E9400408DA2B2E433781213E692E0F6A2B3E43D
:2002290033781313E692E0F6A2A0E433781413E692E0F6A2A1E433781513E692E0F622AE38
:2002490082AF83EE4F6036752D07752E00E52D252DFEE52E33EE2416F9AF2D1FEF2F2416A6
:20026900F8860608860718A70609A70719152D74FFB52D02152EE52D452E70D122E4F52DFD
:20028900F52EE52D252DFEE52E33EE2416F9AF2D0FEF2F2416F8860608860718A70609A798
:2002A9000719AF2D0FEF2F2416F8760B087600052DE4B52D02052EC3E52D9407E52E940097
:2002C90040C0227E007F007C01E4FDF52DF52EE52D252DFAE52E33EA2416F9878209878376
:2002E900198C3E8D3FC007C006C005C004120630AA82AB83D004D005D006D007EA2EFEEB37
:200309003FFF8C3E8D3F90000AC007C006120630AC82AD83D006D007052DE4B52D02052E59
:20032900C3E52D9408E52E940040A48E828F8322AF82BF0802800FBF10028017BF20028022
:2003490020BF40488031E5292527F527E52A3528F52822E527C39529F527E528952AF528C9
:200369002285293E852A3F8527828528831206308582278583282285293E852A3F8527824A
:2003890085288312060785822785832822AE82AF83E4F52DF52EE52D252DFCE52E33EC2444
:2003A90016F9753E0A753F008E828F83C007C006C00112069AE5828583F0D001D006D007B5
:2003C900F709A7F019753E0A753F008E828F831206D0AE82AF83EE4F6013052DE4B52D02DD
:2003E900052EC3E52D9408E52E940040A922AE82AF83BE0A05BF0002801CBE0B06BF000381
:20040900020478BE0C06BF0003020481BE0D06BF0003020484227480B526057526088007FF
:20042900E5267003752608E52625E0F526F4F5909000141205FAE52B452C600F1202CC85E4
:200449008227858328E4F52BF52C221202CC85822985832AE526C313FFBF04027F408F82BC
:2004690012033985278285288312039602014190000012024802014102049F1202CC85821C
:200489002985832A8526821203398527828528831203960201417F018F061EEE2E2416F8AF
:2004A900760B087600753D008F82C0071200E0D0070FBF090040E1753D087582011200E045
:2004C900752B01752C00221200FFE4F52DF52EE52D2408F8E64401F6E52D2408F8E654F9B5
:2004E900F6E52D2408F8E654E7F6052DE4B52D02052EC3E52D940EE52E940040D212049F9E
:200509009000141205FA1201A37E007F00C3EE940EEF940050EAEE2408F9E7035403FD60A9
:200529000ABD01028023BD025A803CEE2408F9E720E00CEE2408F8E654F94402F68044EE37
:200549002408F8E654F9F6803AEE2408F9E720E00CEE2408F8E654F94404F68026EE240842
:20056900F8E654F9F6801CEE2408F9E720E00CEE2408F8E654F94404F68008EE2408F8E6AC
:2005890054F9F6EE2408F9E754067044EE2408F9E7C4235403FDBD0237C3EE940AEF94000A
:2005A900501F900001C007C006120248D006D0078E168F17C007C006120141D006D0078044
:2005C9000F8E828F83C007C0061203F7D006D007EE2408F9EE2408F8E6035403FDC403541E
:1105E90018F5F0E754E745F0F70EBE00010F020516BD
:0D05FA00AD827E027FE6DFFEDEFADDF62236
:200607007A10E4FBFCE58225E0F582E58333F583EB33FBEC33FCEB953EF5F0EC953F40069B
:09062700FCABF0438201DADD2294
:06003500E478FFF6D8FD9F
:200013007900E94400601B7A0090070C780175A000E493F2A308B8000205A0D9F4DAF27580
:02003300A0FF2C
:1D063000E582853EF0A4C582C0F0853FF0A4D0F025F0C583853EF0A42583F58322EA
:20064D00E53E453F60467A01E53E25E0F53EE53F334012F53FE582953EE583953F40030ACA
:20066D0080E6C3E53F13F53FE53E13F53EC3E582953EF5F0E583953F4005F58385F082C3DB
:0D068D00E53F13F53FE53E13F53EDAE122AF
:20003B007800E84400600A790175A000E4F309D8FC7800E84400600C7900900001E4F0A3C3
:04005B00D8FCD9FAFA
:0D00060075813F120708E5826003020003C8
:20069A00C2D5E58330E70DD2D5E4C39582F582E49583F583E53F30E70BE4C3953EF53EE4F6
:1606BA00953FF53F12064D30D50BE4C39582F582E49583F58322E2
:2006D000C2D5E58330E70DD2D5E4C39582F582E49583F583E53F30E70DB2D5E4C3953EF559
:1806F0003EE4953FF53F12060730D50BE4C39582F582E49583F58322CE
:0407080075820022D4
:00000001FF
