:0400000002001132B7
:03000B0002016887
:10006A00E4F510F511F512F513F514F515F516F575
:08007A0017F518F51902000E3C
:03000E000201A745
:10008200AF82E4F51AF51BC2A0EF23540124FF92BC
:10009200A28F06EE2EFFD2A0051AE4B51A02051BA6
:1000A200C3E51A9408E51B940040DCE4F51AF51B3D
:1000B200C2A0E51D23540124FF92A2E51D25E0F50F
:1000C2001DD2A0051AE4B51A02051BC3E51A94084D
:1000D200E51B940040DA22AF82C2A17E01851C1D7D
:1000E2008F82C007C006120082D006D0070EEE240F
:1000F200FE50EAD2A122751C0175820C1200D9753C
:100102001C0075820F1200D9751C0075820912003D
:10011200D9751C0775820B1200D9751C0075820AED
:100122001200D97F01751C008F82C0071200D9D03E
:10013200070FEF24F750EE227E017F00C3EE9409F1
:10014200EF9400501F8E058D04EC142408F9871CCF
:100152008D82C007C0061200D9D006D0070EBE009D
:10016200DB0F80D82222C0E0C007C0D075D0007556
:100172008CFC758A18E51404F514D0D0D007D0E0B1
:10018200327E007F00C3EE9408EF9400500DEE24FF
:1001920008F876000EBE00ED0F80EAE4F516F517BA
:1001A200F518F519221200F8758901758CFC758A0B
:1001B20018D2A9D2AFD28CD2A420A4FD120167809A
:0E01C200F8AD827E027FE6DFFEDEFADDF62279
:06004000E478FFF6D8FD94
:10001E007900E94400601B7A009001D4780175A044
:10002E0000E493F2A308B8000205A0D9F4DAF27541
:02003E00A0FF21
:100046007800E84400600A790175A000E4F309D855
:10005600FC7800E84400600C7900900001E4F0A30D
:04006600D8FCD9FAEF
:0D00110075811D1201D0E582600302000E12
:0401D0007582002212
:00000001FF
