:0400000002001132B7
:03000B000203A24B
:20006A00752180752240752320752410752508752604752702752801E4F541F542F543F52D
:0F008A0044F545F546F547F548754A8002000EE6
:03000E0002049E4B
:200099007F01754B0C754C018F82C00712013ED007754B0F754C008F82C00712013ED007A9
:2000B900754B09754C008F82C00712013ED007754B0B754C078F82C00712013ED007754B4A
:2000D9000A754C008F82C00712013ED0077E018E4B754C008F82C007C00612013ED006D08E
:2000F900070EEE24F750E80FEF24FD509522AF827E00C2A0EF23540124FF92A28F05ED2DEE
:20011900FFD2A00EBE080040E97F00C2A0E50823540124FF92A2E50825E0F508D2A00FBF8C
:20013900080040E722AF82C2A17E02C3EF9E5014750800758200C007C006120107D006D0CC
:20015900071E80E7854C08854B82C007120107D0071FBF01004010750800758200C007129B
:200179000107D0071F80EBD2A1227F018F061EEE2429F9874C8F4B758201C007C0061201BC
:200199003ED006D007EE2431F9874C8F4B758202C00712013ED0070FEF24F750CF22AE8200
:2001B900AF83BE0005BF00028008BE0124BF0021800FE530FF14F53070177849E64402F6DF
:2001D90022E5302530FFEFF53070067849E64402F622E53004F5307849E620E348E539247A
:2001F90029F9E7C313FFF70539E4B53902053AE53DB53912E53EB53A0D053DE4B53D020560
:200219003EE4F539F53A7409B53D06E4B53E028001227849E64408F6753D01753E00753958
:2002390001753A0022E5392429F9E7C313FFF70539E4B53902053A7408B53906E4B53A0226
:20025900800122053DE4B53D02053E853D39853E3A22AF3B8FF005F07401800225E0D5F04C
:20027900FBFEF4F590EF142421F9E760067541017542001FEF602EE54145427015EF2431E5
:20029900F987068F05ED142431F8E6C313FD2EF78010EF2431F98F06EE142431F8E6C31392
:2002B900FEF71F80CFE54145427003020355E53F4540701C153B74FFB53B02153C7409C3CD
:2002D900953BF53FE4953CF540E4F541F5428067E53BFF14FE2431F98705EE2421F987061B
:2002F900EDB5062C7408B53B06E4B53C028021E53FFE2F24FE2431F987077408C39E2421B6
:20031900F8E6FE4FF7153F74FFB53F02154080277401B538227408B53B06E4B53C0280029A
:200339008015153B74FFB53B02153C7409C3953BF53FE4953CF540E4F541F54275310022C2
:200359007849E654F0F67849E620E2287F00EF2429F876FFEF2431F8E4F6F539F53A753B87
:2003790008F53C753D01F53E753F01F5400FBF080040DB227F00EF2429F87600EF2431F8E3
:2003990076FF0FBF080040EE22C020C0E0C0F0C082C083C007C006C005C004C003C002C099
:2003B90001C000C0D075D000758CFC758A180543E4B5430205440547E4B547020548C3E5E8
:2003D9004394E8E5446480948340407849E64401F6E4F543F5447849E620E12A7849E620D1
:2003F900E4197849E603035401FF7E008F828E831201B77849E64430F680101201EB78491C
:20041900E654EFF68005E54AF4F590C3E54794F4E5486480948140507849E630E04A784988
:20043900E620E1227849E630E5097531807849E654DFF67849E603035401FF7E008F828EC1
:200459008312026B801A7849E603035401FF7E008F828E8312026BAF4A74402FFFF4F59073
:20047900120183E4F547F548D0D0D000D001D002D003D004D005D006D007D083D082D0F0CF
:1C049900D0E0D02032120099120359758901758CFC758A18D2A9D2AFD28C80FE71
:0D04B500AD827E027FE6DFFEDEFADDF6227C
:06004000E478FFF6D8FD94
:20001E007900E94400601B7A009004C6780175A000E493F2A308B8000205A0D9F4DAF275BE
:02003E00A0FF21
:200046007800E84400600A790175A000E4F309D8FC7800E84400600C7900900001E4F0A3B8
:04006600D8FCD9FAEF
:0D00110075814C1204C2E582600302000EEE
:0404C200758200221D
:00000001FF
