:03000000020006F5
:20005F0075087E750930750A6D750B79750C33750D5B750E5F750F7075107F75117B751200
:07007F0001751300020003EC
:03000300020122D5
:20008600AF827D007E00C2A0EF23540124FF92A28F04EC2CFFD2A00DBD00010EC3ED9408CD
:2000A600EE940040E17E007F00C2A0E51523540124FF92A2E51525E0F515D2A00EBE000127
:2000C6000FC3EE9408EF940040DF22AF82C2A18514158F82120086D2A12275140175820CED
:2000E6001200D175140075820F1200D17514007582091200D175140775820B1200D175143B
:200106000075820A1200D17F017514008F82C0071200D1D0070FEF24F750EE221200E07F70
:2001260001BF0900500F7514018F82C0071200D1D0070F80EC22AE82AF837C007D00C3ECCE
:110146009EED9F500B7B5ADBFE0CBC00F10D80EE221F
:06003500E478FFF6D8FD9F
:200013007900E94400601B7A0090015B780175A000E493F2A308B8000205A0D9F4DAF27537
:02003300A0FF2C
:20003B007800E84400600A790175A000E4F309D8FC7800E84400600C7900900001E4F0A3C3
:04005B00D8FCD9FAFA
:0D000600758115120157E5826003020003A9
:04015700758200228B
:00000001FF
