:03000000020006F5
:1C005F00E4F508F509F50AF50BF50CF50DF50EF50FF510F511F512F5130200037E
:0300030002007B7D
:20007B0020B3367401B5080614B5090280028029C3E50A940AE50B648094805054050AE456
:20009B00B50A02050B740AB50A06E4B50B028002803FE4F508F509803830B330E508450965
:2000BB00702AC3E50A940AE50B648094805022050AE4B50A02050B740AB50A06E4B50B0234
:2000DB008002800D7508017509008005E4F50AF50B20A0367401B50C0614B50D0280028086
:2000FB0029C3E50E940AE50F648094805054050EE4B50E02050F740AB50E06E4B50F028097
:20011B0002803FE4F50CF50D803830A030E50C450D702AC3E50E940AE50F648094805022D5
:20013B00050EE4B50E02050F740AB50E06E4B50F028002800D750C01750D008005E4F50E64
:20015B00F50F20A1367401B5100614B5110280028029C3E512940AE5136480948050540551
:20017B0012E4B512020513740AB51206E4B513028002803FE4F510F511803830A130E510B6
:20019B004511702AC3E512940AE5136480948050220512E4B512020513740AB51206E4B5DA
:2001BB0013028002800D7510017511008005E4F512F513E5084509700EC297D2B7120210BD
:2001DB00C2B7120210D297E50C450D700EC295D2B712021EC2B712021ED295E5104511606E
:1501FB000302007BC293D2B712022BC2B712022BD29302007BB8
:200210007E0A7F13DFFEDEFA7F0DDFFE22227E0A7F11DFFEDEFA7F09DFFE227E0A7F0FDF09
:08023000FEDEFA7F07DFFE226B
:0D023800AD827E027FE6DFFEDEFADDF622FB
:06003500E478FFF6D8FD9F
:200013007900E94400601B7A00900249780175A000E493F2A308B8000205A0D9F4DAF27548
:02003300A0FF2C
:20003B007800E84400600A790175A000E4F309D8FC7800E84400600C7900900001E4F0A3C3
:04005B00D8FCD9FAFA
:0D000600758113120245E5826003020003BC
:04024500758200229C
:00000001FF
