:0600000002001902013CA0
:03000B000200F6FA
:0300130002018463
:0C007200E4F508F509F50AF50B0200168C
:0300160002007E67
:20007E00758901758CFF758A9CD2AFD2A9D2A8D2AAD28CD288C28AC290C2977E007F008E9C
:20009E000A8F0B900032C007C0061201CCD006D0070EBE00010FC374649E74808FF063F0E8
:2000BE008095F050DA7E007F00E50AC39EF50AE50B9FF50B900032C007C0061201CCD00614
:2000DE00D0070EBE00010FC374649E74808FF063F08095F050D380A3C0E0C0F0C0D0758C24
:2000FE00FF758A9C0508E4B508020509C3E5089464E509648094804005E4F508F509C3E530
:20011E0008950AE5096480850BF063F08095F05004C2908002D290D0D0D0F0D0E032C020C4
:20013E00C0E0C0F0C082C083C007C006C005C004C003C002C001C000C0D075D000759000D6
:20015E009027101201CC75907FD0D0D000D001D002D003D004D005D006D007D083D082D0A6
:20017E00F0D0E0D02032C020C0E0C0F0C082C083C007C006C005C004C003C002C001C000CE
:20019E00C0D075D0007590009027101201CC75907FD0D0D000D001D002D003D004D005D0DE
:0E01BE0006D007D083D082D0F0D0E0D020321F
:1201CC00AC830CAD827E037FAADFFEDEFADDF6DCF22295
:06004800E478FFF6D8FD8C
:200026007900E94400601B7A009001E2780175A000E493F2A308B8000205A0D9F4DAF2759D
:02004600A0FF19
:20004E007800E84400600A790175A000E4F309D8FC7800E84400600C7900900001E4F0A3B0
:04006E00D8FCD9FAE7
:0D0019007581201201DEE5826003020016F1
:0401DE007582002204
:00000001FF
